:10F800000C94387C0C94557C0C94557C0C94557C51
:10F810000C94557C0C94557C0C94557C0C94557C24
:10F820000C94557C0C94557C0C94557C0C94557C14
:10F830000C94557C0C94557C0C94557C0C94557C04
:10F840000C94557C0C94557C0C94557C0C94557CF4
:10F850000C94557C0C94557C0C94557C0C94557CE4
:10F860000C94557C0C94557C0C94557C0C94557CD4
:10F8700011241FBECFEFD0E1DEBFCDBF11E0A0E06D
:10F88000B1E0E0E5FFEF02C005900D92A030B107B6
:10F89000D9F712E0A0E0B1E001C01D92A434B10795
:10F8A000E1F70E945E7F0C94A67F0C94007C0F927F
:10F8B000AF93BF93CF93DF93EF93FF93FC01EA01E4
:10F8C000DB01C895099231961197D9F7FF91EF9115
:10F8D000DF91CF91BF91AF910F9008950F921F923A
:10F8E0000F931F93AF93BF93CF93DF93EF93FF9348
:10F8F000FC01EA01DB0110E00990199001E04CD015
:10F900003296129711F01250B9F7FC0103E044D07F
:10F9100005E042D000E011E0800F911F109759F7E9
:10F92000FF91EF91DF91CF91BF91AF911F910F9117
:10F930001F900F9008950F931F93EF93FF93FC0177
:10F9400003E02AD000E011E0E00FF11FE617F7070F
:10F95000B9F7FF91EF911F910F9108950F930F92B7
:10F9600022D0082E09E018D00F900F9108950F9320
:10F970000F92EF93FF9317D0FC0160935700C89547
:10F98000802DFF91EF910F900F9108950F930BD061
:10F9900001E102D00F910895F999FECF009357002D
:10F9A000E895FFFF00000091570000FDFCCF08958F
:10F9B00089E08093C400E1ECF0E08081886180837D
:10F9C0000895E1ECF0E08081877E80830895809344
:10F9D000C6008091C00086FFFCCF8091C00080648B
:10F9E0008093C00008958091C60008958091C00062
:10F9F00080780895AC0120E030E00CC08091C00018
:10FA000087FFFCCF8091C600FA01E20FF31F8083CD
:10FA10002F5F3F4F2617370788F381E00895FC01D9
:10FA200020E030E00FC080818093C6008091C0004C
:10FA300086FFFCCF31968091C00080648093C00027
:10FA40002F5F3F4F2617370770F381E00895813805
:10FA500079F0823818F4803839F408C0823851F0CF
:10FA6000883911F483E0089580E0089582E00895D4
:10FA700081E0089582E10895609140017091410113
:10FA8000409142025091430220E030E010C0C90191
:10FA9000840F951F92BD81BDF901EE5BFE4F808101
:10FAA00080BDFA9AF99AF999FECF2F5F3F4F26173A
:10FAB000370768F3460F571F5093430240934202A3
:10FAC000089560914001709141014091420250912E
:10FAD000430220E030E00DC0C901840F951F92BDA4
:10FAE00081BDF89A80B5F901EE5BFE4F80832F5FF0
:10FAF0003F4F2617370780F3460F571F5093430297
:10FB000040934202089540E050E00BC020E030E016
:10FB100000002F5F3F4F68E02A3C3607C9F74F5F70
:10FB20005F4F4817590790F3089560914001709115
:10FB30004101809142029091430242E451E0880FDA
:10FB4000991F0E94577C0895CF93DF93C0E0D0E0C7
:10FB500011C0AE014E5B5E4F809142029091430214
:10FB6000880F991F60E071E08C0F9D1F0E946E7CD2
:10FB7000C050DF4F8091400190914101C817D907D3
:10FB800040F30E94C67CDF91CF9108950E94F67CDD
:10FB90008823E1F30E94F37C803211F481E0089520
:10FBA00085E10E94E77C80E00895DF92EF92FF926A
:10FBB0000F931F93CF93DF9369E081E090E00E9461
:10FBC000B77C84FF03C08F7E0E94AE7CDD240E9440
:10FBD000F67C8823E1F30E94F37C8235C0F4803503
:10FBE00008F07AC0813409F443C0823448F4813388
:10FBF00021F1803409F454C1803309F04DC16CC047
:10FC0000823409F45AC0853409F046C159C086359A
:10FC100009F40FC1873538F4823509F463C085359E
:10FC200009F03AC16EC0843709F4A8C0853709F4D9
:10FC3000F0C0843609F030C17CC00E94C67D8823A4
:10FC400031F284E10E94E77C81E40E94E77C86E552
:10FC50000E94E77C82E50E94E77C80E20E94E77CCC
:10FC600083E50E94E77C84E50E94E77C8BE410C179
:10FC700061E070E080E091E00E94FA7C0E94C67D25
:10FC8000882309F4A4CF84E10E94E77C80910001DD
:10FC9000813879F0823818F4803839F408C0823815
:10FCA00051F0883911F483E0F3C080E0F1C082E0C4
:10FCB000EFC081E0EDC082E1EBC064E170E008C01C
:10FCC00061E070E080E091E00E94FA7C64E070E026
:10FCD00080E091E00E94FA7C0E94C67D882309F4AE
:10FCE00076CF0DC00E94C67D882309F470CF60E0F6
:10FCF00070E080E090E00E949B7C0E94C67C84E1E2
:10FD0000C7C062E070E080E091E00E94FA7C0E944F
:10FD1000C67D882309F45BCFF0900101EE24809129
:10FD200000019701280F311D3093430220934202B6
:10FD3000E6CF63E070E080E091E00E94FA7CD09131
:10FD40000001C0E080910101BE01680F711D709338
:10FD500041016093400182E491E00E94FA7C0E949C
:10FD6000C67D882309F433CF80910201863419F4CB
:10FD70000E94A47DC4CF0E943C7DC1CF63E070E0AF
:10FD800080E091E00E94FA7C1091000100E08091F7
:10FD900001019801280F311D30934101209340014A
:10FDA0000E94C67D882309F412CF80910201863417
:10FDB00059F040914001509141016091420270918F
:10FDC000430220E030E010C00E94957D16C0C901BA
:10FDD000860F971F92BD81BDF89A80B5F901EE5B41
:10FDE000FE4F80832F5F3F4F2417350780F3460F68
:10FDF000571F509343024093420284E10E94E77CE4
:10FE0000609140017091410182E491E00E940F7D78
:10FE100041C00E94C67D882309F4D9CE84E10E94A6
:10FE2000E77C8EE10E94E77C86E90E94E77C89E01E
:10FE30002FC064E070E080E091E00E94FA7C0E94B4
:10FE4000C67D882309F4C3CE84E10E94E77C8091BB
:10FE50000001803531F480910101882359F4DD24BB
:10FE600012C0883581F480910101883041F453E05B
:10FE7000D52E09C0883039F442E0D42E04C088233E
:10FE800011F4DD24D39469E08D2D90E00E94B77CBD
:10FE90000E94E77C80E101C085E10E94E77C97CE6B
:10FEA000DF91CF911F910F91FF90EF90DF90089518
:10FEB0000E94E17CE0E0F0E0099508951F93F8943A
:10FEC000F999FECF8EEF97E092BD81BDF89A80B58B
:10FED000843BA1F4F999FECF8FEF97E092BD81BDED
:10FEE000F89A80B5833C51F4F999FECF8DEF97E0F5
:10FEF00092BD81BDF89A80B5809366000E94D87C3F
:10FF00000E94F37C1EE119C00000019648E08A3C83
:10FF10009407D1F72F5F3F4F2436310519F080E069
:10FF200090E0F2CF0E94F67C882319F00E94D57DE4
:10FF300007C0115015B9112319F020E030E0EFCFC0
:10FF40000E94587F80E090E01F910895F894FFCFC1
:040000030000F80001
:00000001FF
